:100000000C94B8020C94D5020C94D5020C94D50231
:100010000C94D5020C94D5020C94D5020C94D50204
:100020000C94D5020C94D5020C94670D0C941B1201
:100030000C94AC210C94D5020C94D5020C94D502EE
:100040000C94D5020C94D5020C94D5020C94D502D4
:100050000C94D5020C943E0E0C94D5020C94D5024F
:100060000C94D5020C94D5020C94D5020C94D502B4
:100070000C94D5020C94D5020C94D5020C94D502A4
:100080000C94D5020C94D5020C94D5020C94D50294
:100090000C94D5020C94D5020C94D5020C94D50284
:1000A0000C94D5020C94D5020C94D502050109805C
:1000B000A101850319012AB700150126B700950192
:1000C00075108100C0050C0901A101850419012AE0
:1000D000A002150126A002950175108100C005013E
:1000E0000906A1018505050719E029E71500250185
:1000F0009508750181020507190029EF15002501F2
:1001000095F075018102050819012905950575010C
:100110009102950175039101C005010902A1010930
:1001200001A100050919012905150025019505758D
:10013000018102950175038101050109300931151D
:1001400081257F95027508810609381581257F95DF
:100150000175088106050C0A38021581257F950175
:1001600075088106C0C005010906A101050719E04F
:1001700029E715002501950875018102950175088B
:1001800081010507190029FF150026FF0095067556
:100190000881000508190129059505750191029549
:1001A0000175039101C02E004C002A00E100354189
:1001B00000001E00140004001D00095DE3001F0084
:1001C0001A0016001B00E1042A00200008000700A6
:1001D000060050002C0021001500090019004F00F6
:1001E0004D00220017000A000500000000645000C6
:1001F00001530000920000004A004F00015300002C
:10020000900000004B0023001C000B0011000000B8
:100210002961240018000D00100052004E00250036
:100220000C000E00360051002800260012000F00BE
:1002300037002F002B0027001300334238713000A5
:10024000E2002D0031003468E50001510000290072
:10025000010001000100010000003A001E0220021E
:1002600022022E002E5D3B001F022102230201000C
:10027000CA5C3C002F0226022F000100CB5C3D002F
:1002800030022702300001002D5D3E0031023500B2
:1002900035020000C45C0100010000000100000004
:1002A000010001000100000001000000C35C3F00EC
:1002B00052005100240200002C5D40002400210067
:1002C0001E00010001004100250022001F00370030
:1002D000010042002600230020002700C75C4300E5
:1002E00025022E0231002E000100440045000100CD
:1002F00001000100000001000100010001000100F7
:1003000000000100010001000100095D0100010081
:100310000100F2000100010001000100F000F10005
:100320000100F400010001000100F3000100F500EC
:1003300001000100010001000100000001000100B6
:1003400001000000010000000100010001000000A8
:100350000100000001000100010001000100000097
:1003600001000100010001000100A90001000100DD
:1003700001000100AC00AA00B6000100010001006C
:10038000AB00A80001000100010001000100010014
:100390000100005C0100AE000100010000000A0045
:1003A000000000000306B200080001000000A800E1
:1003B000080002000300A0001400030057494E5536
:1003C0005342000000000000000000008400040010
:1003D00007002A004400650076006900630065009C
:1003E00049006E00740065007200660061006300E1
:1003F00065004700550049004400730000005000AC
:100400007B003900440042003700460031004600BE
:1004100044002D0037004500370041002D00340016
:100420003000300038002D00390033003600420023
:100430002D003600420041003600430031003900F3
:10044000410033003000380063007D0000000000F0
:100450001B0301636F6E6669677572652E6572674F
:100460006F646F782D657A2E636F6D0009026B00E3
:10047000040100A0FA0904000001030101000921A0
:10048000110100012240000705810308000A090448
:1004900001000103010200092111010001224D00A8
:1004A0000705820308000A09040200010300000096
:1004B000092111010001226D000705830320000AB4
:1004C0000904030002FF0000000705840340000543
:1004D00007050503400005120110020000000897FF
:1004E00032744901000102000116034500720067E1
:1004F000006F0044006F007800200045005A0000A3
:100500000030035A0053004100200054006500638E
:100510000068006E006F006C006F006700790020BB
:10052000004C00610062007300200049006E00630F
:1005300000000004030904050F3900021C10050027
:10054000DF60DDD88945C74C9CD2659D9E648A9F3B
:1005500000000306B20045001810050038B6083444
:10056000A909A0478BFDA0768815B6650001420059
:1005700011241FBECFEFDAE0DEBFCDBF12E0A0E056
:10058000B1E0E2ECF8E402C005900D92A830B107AA
:10059000D9F723E0A8E0B2E001C01D92AA34B20767
:1005A000E1F70E94291E0C942D240C940000E8ED24
:1005B000F0E080818E7F80831092E2001092DA005A
:1005C0001092E100A0EEB0E08C9181608C9380816C
:1005D0008F77808319BCA7EDB0E08C918E7F8C93D0
:1005E00080818F7E80831092140308952091E4000F
:1005F0003091E50095E6A9012091EC00822F8170F1
:1006000020FF06C08091E80080FF06C080E00895CA
:100610002091E80022FD1AC080913903882389F0D7
:10062000853089F08091EB0085FD0FC02091E400BA
:100630003091E50042175307F9F29150E1F684E05A
:10064000089582E0089583E0089581E00895EF928F
:10065000FF920F931F93CF937C018B010E94F602B0
:10066000C82F882371F08C2FCF911F910F91FF908D
:10067000EF900895F70181917F018093F10001507F
:1006800011090115110579F38091E80085FDF2CF7C
:100690008091E8008E778093E8000E94F60288231C
:1006A00081F3C82FE0CF80913B0387FF13C0809177
:1006B000E80082FF06C08091E8008B778093E80015
:1006C00004C0809139038111F2CF089580913903DC
:1006D0008823D9F38091E80080FFF8CF8091E8006B
:1006E0008E77ECCF982F9093E900242F762F50E04F
:1006F000891731F07091EC002091ED005091F000DD
:1007000021FD07C09F5F973071F78093E90081E07A
:1007100008953091EB003E7F3093EB003091ED0077
:100720003D7F3093ED003091EB0031603093EB0072
:100730007093EC002093ED005093F0002091EE00B8
:1007400027FDE0CF80E00895CF92DF92EF92FF92F5
:100750000F931F93CF93DF93C8EDD0E088818F7EF6
:100760008883E7EDF0E080818160808384E082BF50
:1007700081E08093140388818E7F888302EE10E0ED
:10078000F80110821092DA0081EEC82ED12CF60109
:10079000108288818F7788838881806888838881A8
:1007A0008F7D888319BC1092390310923A031092FE
:1007B00038031092370390EEE92EF12CF701808177
:1007C0008B7F808388818160888342E060E080E065
:1007D0000E947203F60180818E7F8083F801808100
:1007E00081608083808188608083F70180818E7F33
:1007F0008083888180618883DF91CF911F910F91E1
:10080000FF90EF90DF90CF900895FC01809141031D
:100810009091420386179707A0F06115710529F49E
:100820008091E8008E778093E80090E06115710573
:1008300051F4911108C08091E80082FF35C080E03A
:100840000895BC01F2CF809139038823C9F1853026
:10085000C9F18091E80083FD31C08091E80082FDFC
:10086000EACF8091E80080FFE1CF8091F3002091F2
:10087000F200382F6115710519F02830310558F054
:1008800091E02830310509F090E08091E8008E7702
:100890008093E800CBCF84918093F1003196615032
:1008A00071092F5F3F4FE6CF80913903882341F0D4
:1008B000853041F08091E80083FFBDCF81E008954D
:1008C00082E0089583E00895FC01809141039091B6
:1008D000420386179707A0F06115710529F49091DE
:1008E000E8009E779093E80090E06115710551F45F
:1008F000911108C08091E80082FF34C080E0089523
:10090000BC01F2CF809139038823C1F18530C1F158
:100910008091E80083FD30C08091E80082FDEACF3D
:100920008091E80080FFE1CF8091F3002091F200F8
:10093000382F6115710519F02830310558F091E014
:100940002830310509F090E02091E8002E772093BF
:10095000E800CBCF81918093F100615071092F5F46
:100960003F4FE7CF80913903882341F0853041F034
:100970008091E80083FFBECF81E0089582E0089572
:1009800083E008958091160308952091390324305F
:1009900091F42093E90070E050E040E00E942703CA
:1009A000882321F010921203109213038091E80023
:1009B0008E778093E80008959091F902803F59F472
:1009C0008091FA0287FF0DC01092FA0291110BC0BC
:1009D0001092F50208C0813F81F48091FA02181646
:1009E0009CF3992381F08091FB029091FC02892B6A
:1009F00009F064C01092F2020895823F49F497FF13
:100A0000F0CF1092F9028091FA028111ECCFE0CF81
:100A1000833F19F41916ACF3E4CF2091FB02893F10
:100A200029F41216F4F61092FB02DBCF8A3F19F478
:100A300027FFD7CFF8CF2091FC028B3F29F427FF67
:100A4000D0CF1092FC02CDCF8C3F19F41216CCF30C
:100A5000C8CF843F31F48091F8028E7F8093F802F2
:100A6000C0CF853F21F48091F8028D7FF7CF863F7C
:100A700021F48091F8028B7FF1CF873F21F48091A0
:100A8000F802877FEBCF883F21F48091F8028F7EB8
:100A9000E5CF8D3F31F48091C6028E7F8093C602F0
:100AA000A0CF8E3F21F48091C6028D7FF7CF8F3F7C
:100AB00009F097CF8091C6028B7FF0CF0895809187
:100AC000C60280FD1AC081FD14C082FD14C0809151
:100AD000F202882391F08C3370F427E0829FC001EA
:100AE00011246CE370E00E94A022862F672B29F06E
:100AF000089583E0089587E0089581E00895809146
:100B0000C60280FD16C081FD16C082FD18C080910E
:100B1000F502882391F08C3390F423E2829FC00188
:100B200011246CE370E00E94A022862F672B49F00D
:100B3000089588E0089581E1089585E0089583E2AD
:100B4000089581E00895803F31F40E947F058195EA
:100B50008093FA020895813F19F40E947F05F8CF2F
:100B6000823F31F40E947F0581958093F9020895B8
:100B7000833F19F40E947F05F8CF893F29F40E9432
:100B80005F058093FB0208958A3F21F40E945F0570
:100B90008195F7CF8B3F31F40E945F05819580935B
:100BA000FC0208958C3F19F40E945F05F8CF843F42
:100BB00031F48091F80281608093F8020895853FB6
:100BC00021F48091F8028260F7CF863F21F4809172
:100BD000F8028460F1CF873F21F48091F8028860A9
:100BE000EBCF883F21F48091F8028061E5CF8D3F03
:100BF00031F48091C60281608093C60208958E3FD1
:100C000021F48091C6028260F7CF8F3FB9F78091BF
:100C1000C6028460F1CF9C014FB7F8948091C20264
:100C20009091C302A091C402B091C5024FBF821B34
:100C3000930B0895209112012223C9F02091DF0225
:100C400027FF15C0E62FE695E695E695EE31D8F438
:100C5000E80FF92FF11D677021E030E001C0220F8D
:100C60006A95EAF720958281282322830895FC0162
:100C7000329608962191621303C0DF0111971C92EE
:100C8000E817F907B9F70895209112012223C1F05E
:100C90002091DF0227FF14C0E62FE695E695E69542
:100CA000EE31F8F4E80FF92FF11D677021E030E024
:100CB00001C0220F6A95EAF78281822B8283089510
:100CC000FC0132962FEF30E04191641751F02F3F35
:100CD00019F4411101C0232F3F5F3630A9F72F3F90
:100CE00009F40895820F911D27FD9A95FC016283F6
:100CF0000895CF92DF92EF92FF926C01EE24FF24D1
:100D000020E0C114D104E104F10419F0C701B601D7
:100D100020E1C72ED82EE92EFF24C114D104E1040E
:100D2000F10419F0285FC701B6016B017C0154E0A2
:100D3000F694E794D794C7945A95D1F7C114D10487
:100D4000E104F10419F02C5FC701B6016B017C01CD
:100D500042E0F694E794D794C7944A95D1F7C1142A
:100D6000D104E104F10419F02E5FC701B601969594
:100D7000879577956795672B682B692B09F02F5F0F
:100D8000822FFF90EF90DF90CF9008958091BD0269
:100D900081111092BD0208958091BC029091BB0216
:100DA000892B9091BA02892B809308029091BD0201
:100DB0009923A1F0892B8093080280911201882346
:100DC00041F18091DF0287FF24C08EE1EAE0F2E08A
:100DD00090E0815000F591110E94C606E091E10279
:100DE000F091E2023097E1F080911201882359F0EE
:100DF0008091DF0287FF07C080910802809309027B
:100E000085E0809308020280F381E02D88E092E083
:100E1000099486E0DBCF21912223D9F29F5FD9CFBD
:100E20000895E92FEE0FE90FEE0F8E0F982F9770B0
:100E300086958695869525E0829FF0011124EE57D0
:100E4000FD4F50E040E080E0219130E0092E02C0EB
:100E5000369527950A94E2F721703327042E01C0B6
:100E6000220F0A94EAF7822B4F5F5F4F45305105FE
:100E700059F70895E92FEE0FE90FEE0F8E0F982F17
:100E8000977041E001C0440F9A95EAF786958695E0
:100E9000869595E0899FF0011124EE57FD4F30E0D3
:100EA00020E070E05191DF011197CB01022E02C0CA
:100EB000969587950A94E2F781708195852784231A
:100EC00085278C932F5F3F4F2530310559F70895C3
:100ED0008091810290915002981301C008958F5F14
:100EE0008770FACF882341F080959091BB028923C7
:100EF0008093BB020C94CC060895882339F090911E
:100F0000BB02982B9093BB020C94CC0608958823C7
:100F100041F080959091BC0289238093BC020C948F
:100F2000CC060895882339F09091BC02982B9093B9
:100F3000BC020C94CC060895209134023091350205
:100F40002817390771F09093350280933402E091AD
:100F5000E102F091E202309721F00084F185E02D6A
:100F600009940895209132023091330228173907ED
:100F700071F09093330280933202E091E102F0919C
:100F8000E202309721F00680F781E02D0994089560
:100F9000E091E102F091E202309721F00190F081BE
:100FA000E02D099480E008959091DF0292FF06C041
:100FB000282F28712830F9F4877F846093FF06C0BA
:100FC000282F28712831F1F4877E84612091E00276
:100FD00020FF06C0382F38713830D9F4877F816000
:100FE00021FF06C0282F28712831D1F4877E816126
:100FF00094FD877E0895282F24712430F9F68B7F85
:101000008860DCCF282F2471243101F78B7E886122
:10101000DDCF382F3171313019F78E7F8860E0CF06
:10102000282F2171213121F78E7E8861E1CFCF9366
:10103000DF93972F70E026E0929F600D711D1124C1
:10104000FB0134E5839FE00DF11D1124EE0FFF1F1E
:10105000EA55FE4FC591D491CE01C238D105B9F100
:10106000E8F5C133D10509F499C050F5C932D1056D
:1010700009F48DC0CA32D10509F497C0C11542E503
:10108000D40708F0C4C0C11521E5D20708F038C163
:10109000C83ED10508F09DC0C03ED10568F5C83AEC
:1010A000D10508F089C0C53AD10508F005C1C130A5
:1010B000D10511F1209709F443C02497E8F440C00A
:1010C000C533D10509F45CC0C933D105B9F6209107
:1010D000DF02237089F080EE90E00EC0C33ED105A0
:1010E00091F168F4C03ED105F9F0C23ED10531F668
:1010F0002091DF0222FD20C0DF91CF910895C63EEE
:10110000D10561F1C73ED10581F1C43ED10509F099
:10111000B5CF2091E00221FFEFCF8091DF0284FD67
:101120000FC087EE90E0E8CF2091DF0220FD19C1CB
:101130003091E00230FFE0CF83EE90E024FFDCCF7F
:1011400090E080E0D9CF2091DF0222FD0DC13091E7
:10115000E00230FDC0CF24FFCFCFF2CF2091DF02DD
:1011600023FFCACF24FDECCFDCCF2091DF0223FD8B
:10117000FEC03091E00231FFEECF84EE90E0BCCFB4
:101180002091DF0225FFB8CF89E290E0B5CF209112
:10119000DF0225FFB1CF85E390E0AECF2091DF02E3
:1011A00026FFAACF8AE290E0A7CF2091DF0226FF98
:1011B000A3CF81E390E0A0CFCF3BD10508F6C85A7A
:1011C000D0E0CC0FDD1FC653DE4F88819981946437
:1011D00093CFC11530E2D30760F4C11541E0D407C5
:1011E00008F08ACFCE019065C03FD10508F084CFCA
:1011F000A7CFC11580E4D80708F4A2CFC11590E5A8
:10120000D90708F061C0CE019F70906A75CFC115F3
:1012100026E5D20718F5C11535E5D30708F086C0D5
:10122000C11544E5D40708F07CC09C2F969596958F
:10123000AE0143705527C115D34508F466C021E0BF
:1012400030E002C0220F331F4A95E2F740E2949F3C
:10125000C0011124822B932B9A684ECFC1159AE5B9
:10126000D90778F4C11529E5D20708F069C0C1157E
:1012700038E5D30708F464CF9C2F8827806F906AE5
:101280003BCFC1154BE5D40708F45ACFC1158CE507
:10129000D80708F462C0CE0190568115904208F03C
:1012A0004FCF8D2F8F710E94D40790E0982F882701
:1012B00088279F718C2B42C0C55AD0E0C953DE4F9E
:1012C000888190E0906418CF9E01E4E036952795E0
:1012D000EA95E1F723708C2F86958695837030E22E
:1012E000839FC0011124922BC37021E030E002C023
:1012F000220F331FCA95E2F7822B932B9C68FCCEFA
:101300009C2F8827816F906AF7CE21E030E002C0E1
:10131000220F331F4A95E2F740E2949FC001112447
:10132000EBCF9C2F8827846F906AE6CE8C2F0E948B
:10133000D40790E0982F882788279F719062DCCE91
:101340008C2F8F700E94D40734E0D695C7953A95BC
:10135000E1F7CF709C2F9069CFCECE019927906690
:10136000CBCE89E390E0C8CE82EE90E0C5CE86EE8B
:1013700090E0C2CEBF92CF92DF92EF92FF920F9396
:101380001F93CF93DF938C01C0900D03D0900E0379
:10139000E0900F03F09010038091BE029091BF0285
:1013A000A091C002B091C102C82AD92AEA2AFB2A18
:1013B000CFE1D0E0BC2ED701C6010C2E04C0B695FB
:1013C000A795979587950A94D2F780FD0EC021972F
:1013D00088F7B12C8B2DDF91CF911F910F91FF904A
:1013E000EF90DF90CF90BF900895B8018C2F0E94AE
:1013F0001708019761F3EECFCF93DF93EC010E94C2
:10140000BA09BE01DF91CF910C9417080E94FC0924
:10141000292F2F7092959F7092509E3078F4E92F6B
:10142000F0E0E15DFB4D0C94B422803F19F020F414
:10143000883E20F481E00895843FE1F380E0089540
:10144000883EC0F3813FD1F7F5CF822F86958695F0
:1014500086950895CF93DF939C013A9521153F41DE
:1014600068F5EC01CC27D170DC01AA27B270AC0181
:10147000442754709C012227387094FF11C080E1EA
:10148000CD2B09F480E0AB2B09F08062452B09F0ED
:101490008064232B09F08068FB01DF91CF910994D0
:1014A00081E0CD2B09F480E0AB2B09F08260452B65
:1014B00009F08460232B81F38860EECFDF91CF9118
:1014C000089527982F98089526982E98089525987E
:1014D0002D98089556985E980895279A2F9A089502
:1014E000269A2E9A0895259A2D9A0895CF92DF92E2
:1014F000EF92FF92CF936B017C010E947906C82F77
:101500000E946A0A0E94670A0E94640A0E94610A95
:10151000C150C73040F4EC2FF0E0E35CFB4D0C947D
:10152000B4220E94730AC701B601CF91FF90EF90D9
:10153000DF90CF9008950E94730A0E94700AF3CF43
:101540000E94730A0E946D0AEECF0E94730A0E94E5
:10155000700AF8CF209828982198299822982A98DC
:1015600023982B9852985A9853985B983E9846988F
:1015700008958098889A8198899A84988C9A8598F9
:101580008D9A86988E9A87988F9A0895CF93DF9335
:1015900000D00F92CDB7DEB790913903943019F592
:1015A00089837B836A8383E08093E9008FEF909146
:1015B000E800815095FD06C095ED9A95F1F7000081
:1015C0008111F5CF8091E80085FF0DC050E040E02B
:1015D00063E070E0CE0101960E9427038091E8004D
:1015E0008E778093E8000F900F900F90DF91CF914E
:1015F0000895BC0184E00C94C60ABC0183E00C94FD
:10160000C60A9C0182E08093E9009FEF8091E80088
:10161000915085FD06C085ED8A95F1F70000911186
:10162000F5CF8091E80085FF0CC050E040E065E018
:1016300070E0C9010E9427038091E8008E778093B3
:10164000E8000895CF93DF93EC0180911201882385
:10165000B1F18091DF0287FF32C060E283E08093C6
:10166000E9008FEF9091E800815095FD06C095ED5F
:101670009A95F1F700008111F5CF8091E80085FF80
:101680001BC08091120170E050E040E0811104C065
:1016900050E040E068E070E0CE010E9427038091B6
:1016A000E8008E778093E80080E2FE01A7E1B3E0D6
:1016B00001900D928A95E1F7DF91CF91089568E04E
:1016C00081E0CDCFEF92FF920F931F93CF93DF93E3
:1016D0000E946A0A0E94670A0E94640A0E94610AC4
:1016E00088E8E82EF12C8FEF90E0F701918380835A
:1016F0000AE810E0F80191838083CCE8D0E0998378
:1017000088830E94730AFFEF20E782E0F1502040B7
:101710008040E1F700C000000E94700A9FEFE0E700
:10172000F2E09150E040F040E1F700C000000E947C
:101730006D0A2FEF80E792E0215080409040E1F762
:1017400000C000000E94670AEFEFF0E722E0E150DE
:10175000F0402040E1F700C000000E94640A8FEFD3
:1017600090E7E2E081509040E040E1F700C00000E7
:101770000E94610A8091CD028770FFEF8F9FC001A8
:10178000112495958795959587959927F7019183CC
:101790008083F80191838083998388830E946A0AF9
:1017A0000E94670A0E94640ADF91CF911F910F91F6
:1017B000FF90EF900C94610ACF9384E090E00E9438
:1017C000BA22C82F81E290E00E94BA22982F8C2F73
:1017D000CF9108956FEE7EEF90E080E00E94EC22C2
:1017E00060E082E090E00E94CE2260E083E090E042
:1017F0000E94CE221092BE021092BF021092C0022E
:101800001092C10260E084E090E00E94CE2260E08D
:1018100081E290E00E94CE2260E085E090E00E94AC
:10182000CE2260E086E090E00E94CE226FEF87E05B
:1018300090E00E94CE2240E050E0BA0188E090E0C3
:101840000E94E02260E08DE090E00E94CE2240E025
:1018500050E0BA0188E190E00E94E02260E087E178
:1018600090E00E94CE2240E050E0BA018CE190E08E
:101870000E94E02260E080E290E00E94CE2240E000
:1018800050E0BA0188E190E00E94E0221092CD027F
:101890001092CE021092CF021092D00284E08061AA
:1018A0008093CD024091CD025091CE026091CF0243
:1018B0007091D0028FE090E00E94E02240E050E082
:1018C000BA0183E190E00C94E022CF93C82F8730D7
:1018D00070F58091060190910701892B89F564E6E6
:1018E00070E080E40E94D921909307018093060163
:1018F000892BD1F464E670E082E10E943522909356
:10190000070180930601892B79F481E090E001C002
:10191000880FCA95EAF764E670E080950E94352248
:101920009093070180930601CF910C9488228A300E
:10193000B9F040F4883071F0893079F0209A289815
:10194000CF9108958C3091F070F08D30B9F73E9AB8
:101950004698F6CF219A2998F3CF229A2A98F0CF69
:10196000239A2B98EDCF529A5A98EACF539A5B98C4
:10197000E7CF80E290E09093070180930601809189
:10198000280281110EC00E94D32181E08093280299
:101990002FEF83ED90E3215080409040E1F700C0AD
:1019A000000064E670E080E40E94D9219093070172
:1019B00080930601892B09F04EC064E670E080E058
:1019C0000E9435229093070180930601892B09F02C
:1019D00042C064E670E080E00E94352290930701E7
:1019E00080930601892BB9F564E670E08FE30E94CD
:1019F00035229093070180930601892B61F50E949F
:101A0000882264E670E080E40E94D9219093070167
:101A100080930601892BF9F464E670E08CE00E9463
:101A200035229093070180930601892BA1F464E687
:101A300070E080E00E9435229093070180930601B8
:101A4000892B49F464E670E08FE30E94352290937D
:101A50000701809306010E94882280910601089563
:101A6000CF93873050F58091060190910701C0E037
:101A7000892B71F464E670E081E40E94D92190938F
:101A8000070180930601892B31F0C0E00E94882273
:101A90008C2FCF91089584E690E00E94642297FFF6
:101AA00005C09093070180930601EFCFC82FC09522
:101AB0001092070110920601E9CFCFB18FB1869540
:101AC00086958C73C3708C2BC82FC095E1CF1F9265
:101AD0000F920FB60F9211242F933F934F935F9362
:101AE0006F937F938F939F93AF93BF93EF93FF93E6
:101AF0008091E10082FF09C08091E20082FF05C071
:101B00008091E1008B7F8093E1008091DA0080FF7B
:101B100024C08091D80080FF20C08091DA008E7FA1
:101B20008093DA008091D90080FF9BC080E189BD5D
:101B300082E189BD09B400FEFDCF81E080933903C5
:101B400080911403811109C00E94D7020E94A4034E
:101B50008091E20084608093E2008091E10080FF48
:101B600017C08091E20080FF13C08091E2008E7F59
:101B70008093E2008091E20080618093E200809196
:101B8000D80080628093D80019BC85E08093390327
:101B90008091E10084FF29C08091E20084FF25C08C
:101BA00080E189BD82E189BD89B5982F917080FF60
:101BB000FBCF8091D8008F7D8093D8008091E10089
:101BC0008F7E8093E1008091E2008F7E8093E2001F
:101BD0008091E20081608093E20080913A03882343
:101BE00009F445C084E0809339038091E10083FFCC
:101BF00027C08091E20083FF23C08091E100877FAE
:101C00008093E10082E08093390310923A0380913F
:101C1000E1008E7F8093E1008091E2008E7F8093CF
:101C2000E2008091E20080618093E20042E060E0A7
:101C300080E00E9472038091F00088608093F00041
:101C4000FF91EF91BF91AF919F918F917F916F9194
:101C50005F914F913F912F910F900FBE0F901F906A
:101C6000189519BC109239031092140376CF809105
:101C7000E30087FD93E090933903B7CF78941F92E8
:101C80001FB61F9211248F939F93AF93BF938091A0
:101C9000C2029091C302A091C402B091C502019604
:101CA000A11DB11D8093C2029093C302A093C402F0
:101CB000B093C502BF91AF919F918F911F901FBEAE
:101CC0001F9018952FB7F8948091C2029091C3028B
:101CD000A091C402B091C5022FBF08950E94620E68
:101CE0009C019091F9028091FA02982B21F0309397
:101CF000F7022093F6029091FB028091FC02982B50
:101D000021F03093F4022093F302E091E102F0918C
:101D1000E202309731F00480F581E02D88EF92E007
:101D2000099408951092BB021092BA020E94CC0648
:101D300085E0E8EFF2E0DF011D928A95E9F7109265
:101D4000F5021092F2021092C6020E946E0E90E00E
:101D500080E00E94B20790E080E00C949C07CF9254
:101D6000DF92EF92FF92CF93DF9300D000D0CDB7F8
:101D7000DEB70E94760A6B017C01809111038823F3
:101D800021F080911203811115C0C0920D03D092F1
:101D90000E03E0920F03F09210030E94920E0F9038
:101DA0000F900F900F90DF91CF91FF90EF90DF9009
:101DB000CF900895198282E08A83C701B6010E94FC
:101DC00079068B838EEF8C8364E0CE0101960E94AE
:101DD000C504DBCF0F931F9341E050E060E070E05B
:101DE00004C0440F551F661F771F8A95D2F7CB0199
:101DF000BA01609570958095909500910D031091B2
:101E00000E0320910F03309110036023712382236E
:101E100093231F910F910C94AF0E9091B90280956E
:101E200089238093B902282F277071F4282F082E58
:101E3000000C330B9217130639F08595859585951F
:101E40000E94EA0E1092B90208950F931F9341E089
:101E500050E060E070E004C0440F551F661F771F1C
:101E60008A95D2F780910D0390910E03A0910F03F4
:101E7000B09110038A019B01082B192B2A2B3B2BB5
:101E8000C901B8011F910F910C94AF0E6093BE026F
:101E90007093BF028093C0029093C1020C94920E83
:101EA0001092BC0280911201EAE0F2E0882359F01E
:101EB0008091DF0287FF07C08EE1DF011D928A95C6
:101EC000E9F70C94920E86E0F8CF1F93CF93DF933F
:101ED000CDB7DEB7AA970FB6F894DEBF0FBECDBF61
:101EE0008BE393E02091F100FC012193CF01F3E01B
:101EF00083349F07B9F780913C03893009F444C0CB
:101F000018F5823009F4B9C0833009F46EC081300D
:101F100031F580913B03813A11F58091E800877F8C
:101F20008093E80080913F0390914003892B41F515
:101F300060E287E193E070E00E9464048091E80031
:101F40008B778093E8000BC08B3009F46BC008F4EA
:101F500083C0823409F4A2C0853409F4BCC08091E6
:101F6000E80083FF50C280913B0390913C039A307C
:101F700008F049C2E92FF0E0EC5BFB4D0C94B42271
:101F800060E090E080E0D7CF80913B03813239F769
:101F900080913F0390914003009711F00297F9F66A
:101FA0008091E800877F8093E8008091E80082FFBD
:101FB00017C09091F3008091F200029729F480916C
:101FC000F1008B7F813021F48091F1008093160322
:101FD0008091E8008B778093E8000E945303BFCF85
:101FE000809139038111E1CFBACF80913B03813ACF
:101FF00009F0B5CF80913F0390914003892B09F000
:10200000AECF8091E800877F8093E8008091E80060
:1020100080FFFCCF809112018093F1008091E80055
:102020008E77D9CF80913B03813209F098CF809190
:102030003F0390914003892B09F091CF8091E800F4
:10204000877F8093E8000E94530380913D03809333
:1020500012010E94500F83CF80913B03813209F01F
:102060007ECF8091E800877F8093E8000E94530331
:1020700080913E038093150372CF80913B03813A98
:1020800009F06DCF8091E800877F8093E800809110
:10209000E80080FFFCCF80911503BECF80913B0309
:1020A000803C09F05CCF80913F0390914003029700
:1020B00039F580913D0390913E03892B09F580917C
:1020C000E800877F8093E8006BE170E080E594E0B2
:1020D0000E94050482CF80913B03803C09F03FCFF2
:1020E00080913F0390914003079751F48091E8005D
:1020F000877F8093E80062EB70E08EE993E0E8CFA1
:102100008091EB0080628093EB0029CF803899F0BA
:10211000823809F078C180913F038F70873008F0D2
:1021200072C18093E9008091EB0085FB882780F9DC
:102130001092E90006C08091370390913803911105
:1021400082609091E800977F9093E8008093F1007F
:102150001092F1008091E8008E7751C1882309F434
:102160003FC1823009F04FC180913D03811142C1CE
:1021700080913F038F702FEF280F263008F043C166
:102180008093E9002091EB0020FF34C1933031F4BB
:102190008091EB0080628093EB002CC19091EB006A
:1021A00090619093EB0021E030E001C0220F8A950E
:1021B000EAF72093EA001092EA008091EB00886031
:1021C000EACF811120C110913D031F778091E30078
:1021D0008078812B8093E3008091E800877F809353
:1021E000E8000E9453038091E80080FFFCCF8091BB
:1021F000E30080688093E30082E0111183E0809324
:10220000390301C18058823008F0FDC080913D0340
:1022100090913E038C3D23E09207A1F583E08A83F1
:102220008AE289834FB7F894DE01139620E03EE0FE
:1022300051E2E32FF0E050935700E49120FF03C0F8
:10224000E295EF703F5FEF708E2F90E0EA30C0F0C4
:10225000C7968D939D932F5F243159F74FBF80917F
:10226000E800877F8093E8006AE270E0CE01019683
:102270000E9464048091E8008B778093E800C3C0DB
:10228000C096E7CF20913F0330914003492F552757
:102290004330510551F1A0F44130510509F459C0C2
:1022A0006BE670E08CE694E04230510509F0ABC07B
:1022B0002091E800277F2093E8000E940504DACFF0
:1022C0004132510539F14232510591F14F305105FA
:1022D00009F099C0E9E3F5E0649170E087E395E0E7
:1022E0006115710509F48FC0E3CF992781309105FD
:1022F00071F0009731F0029709F085C0E9EEF4E043
:1023000002C0E3E3F5E0649170E0CF01E9CFE1E0E2
:10231000F5E0F9CF2330310508F075C0220F331FE7
:10232000F901EF5FFD4F8081918169E070E0C0CFDE
:102330002330310508F067C0F901EE0FFF1FE550AB
:10234000FE4F8081918128503E4FF901608170E0FD
:10235000C7CF62E170E087ED94E0AACF803809F042
:1023600052C08091E800877F8093E80080913A0313
:102370008093F100EFCE811146C010913D031230E1
:1023800008F041C08091E800877F8093E8001093B7
:102390003A030E945303112311F084E005C0809199
:1023A000E30087FDFACF81E08093390342E061ECDE
:1023B00081E00E94720342E061EC82E00E947203BD
:1023C00042E261EC83E00E94720342E361EC84E04C
:1023D0000E94720342E360EC85E00E94720313C026
:1023E00080913D03813079F481E0933009F080E001
:1023F000809338031092E9008091E800877F8093F2
:10240000E8000E9453038091E80083FF0AC0809196
:10241000E800877F8093E8008091EB0080628093E2
:10242000EB00AA960FB6F894DEBF0FBECDBFDF91CA
:10243000CF911F9108951F920F920FB60F92112402
:102440002F933F934F935F936F937F938F939F93BC
:10245000AF93BF93CF93DF93EF93FF93D091E900B6
:10246000DF708091EC00C82FC17080FDC0E8109231
:10247000E9008091F000877F8093F00078940E94BB
:10248000650F1092E9008091F00088608093F00061
:10249000CD2BCF70C093E900FF91EF91DF91CF91E9
:1024A000BF91AF919F918F917F916F915F914F916C
:1024B0003F912F910F900FBE0F901F90189588237A
:1024C000B1F19CEF980F913A38F4682F88E092E0D0
:1024D0000E941A060C94CC0690E2980F983088F46B
:1024E000877021E030E0A90102C0440F551F8A9592
:1024F000E2F7CA0180959091BC0289238093BC02C7
:10250000E9CF9BE5980F933020F490E080E00C94A5
:10251000B20798E5980F973120F490E080E00C9492
:102520009C07803F20F00E94DC040C946E0E0895FE
:10253000CF93DF93EC010E945F12CE01805E910980
:10254000089720F062E777E0209711F467E877E0DA
:10255000CE01DF91CF910C942A0ACF93C82F882304
:1025600009F46EC08CEF8C0F813AB8F5809112019E
:10257000882311F18091DF0287FF1EC0EC2FE695C2
:10258000E695E695F0E0E85FFD4F828190E04C2F04
:10259000477021E030E002C0220F331F4A95E2F776
:1025A00082239323892B89F06C2F88E092E00E948C
:1025B0001A060E94CC0609C0EAE0F2E08191C81731
:1025C00099F382E0E031F807C9F76C2F88E092E0D8
:1025D0000E944406CF910C94CC0680E28C0F883088
:1025E00068F4C77021E030E001C0220FCA95EAF715
:1025F0008091BC02822B8093BC02ECCFEBE5EC0F08
:10260000E33040F4F0E0E953FE4F808190E0CF9159
:102610000C94B207E8E5EC0FE73150F4F0E0EE0F70
:10262000FF1FE653FE4F80819181CF910C949C0750
:10263000C03F30F08C2F0E94A305CF910C946E0EFA
:10264000CF910895CF93C82F0E94AD12C93349F49A
:102650002FEF87EE93E0215080409040E1F700C0DB
:1026600000008C2FCF910C945F120F931F93CF9388
:10267000DF93C62FD42F022FFC0182818823A1F083
:10268000609345030E94620E90934403809343033A
:10269000C77081E001C0880FCA95EAF7DF91CF913A
:1026A0001F910F910C94920780914503681335C0D8
:1026B00080914303909144030E940B06883C91054E
:1026C00060F510E21D0FCD17B9F080E28C0F883055
:1026D00040F4C77081E001C0880FCA95EAF70E94F4
:1026E0008707183048F481E09D2F977001C0880F4C
:1026F0009A95EAF70E949207802F0E9422131830C1
:1027000098F4D77081E001C0880FDA95EAF7DF917D
:10271000CF911F910F910C948707C77081E001C082
:10272000880FCA95EAF7F3CFDF91CF911F910F91F0
:102730000895CF93DF93EC01805E9109089720F014
:102740006DE777E0209711F462E977E0CE010E940F
:102750002A0A8C2FDF91CF910C94AD124F925F9289
:102760006F927F928F929F92AF92BF92CF92DF92A1
:10277000EF92FF920F931F93CF93DF9300D000D07F
:102780000F92CDB7DEB77C01FC0183819481892B48
:1027900039F01081D180812F8D218F3F09F03EC605
:1027A0000F900F900F900F900F90DF91CF911F918E
:1027B0000F91FF90EF90DF90CF90BF90AF909F90E0
:1027C0008F907F906F905F904F9008950E94BA090C
:1027D000082F682F89819A810E943A07E12FF0E043
:1027E00026E0D29EE00DF11D112434E5039FE00D9B
:1027F000F11D1124EE0FFF1FEA55FE4F05911491B4
:1028000080911103882321F0809112038111F2C578
:102810000A32FDE51F07F1F5F7018281882309F4EB
:102820004DC08091CD0291E0980F9770887F9530D0
:1028300008F4892B8093CD028091CD028770FFEF41
:102840008F9FC00111249595879595958795992718
:10285000909389008093880090938B0080938A00E6
:1028600090938D0080938C004091CD025091CE02C8
:102870006091CF027091D0028FE090E00E94E02240
:1028800060910D0370910E0380910F0390911003DE
:102890000E94760AF7018281882309F45CC09801BE
:1028A000225E3C452530310508F055C06EE1600FD1
:1028B0006093C9028CE090E00E94CE22F7018281F1
:1028C000882309F4D3C5109245030230FCE51F07A5
:1028D00008F4B5C506312CE5120738F098012B5FD6
:1028E0003C452730310508F0AAC50E94DC0B9093C7
:1028F000E0028093DF020F303CE5130709F4C9C101
:1029000008F043C108309CE5190709F4ACC108F090
:1029100018C10430FCE51F0709F499C108F0FEC096
:1029200002303CE5130709F48AC103301C4509F461
:102930008AC16091DF021091E00284E090E00E9481
:10294000CE22612F81E290E00E94CE220E94500FA1
:10295000C4C081E155C517FF9AC0882309F4AECFE2
:10296000E091E102F091E20280E0309721F00190E5
:10297000F081E02D099586958170809345029091B4
:10298000C902913029F4882319F089E30E942213A7
:102990008091BC02809344021092BC028091C902D3
:1029A000813009F44AC0882309F443C0823009F415
:1029B0004DC0843009F451C08FE39CE90197F1F7D1
:1029C00000C000004801E89497F8FCE0AF2EB12C5D
:1029D000C4010A2C02C0969587950A94E2F78F707D
:1029E000E7E2CE2ED12C882339F0C82ED12C8A30A4
:1029F000C8F59DE1C90ED11CC6010E949913C601FC
:102A00000E949812F4E0AF1AB1082CEFA2162FEF33
:102A1000B206F1F68091C902813061F1882331F16B
:102A2000823021F1843089F1809144028093BC028C
:102A300045CF82EE0E94AD12BFCF88E193E00E94A5
:102A4000991388E193E00E949812B6CF82EE0E941B
:102A5000AD1287E50E942213AFCF86EE0E942213AB
:102A600088E1F8CFE6E0CE1AD108C6CF82EE0E9408
:102A70005F12DACF8CE20E942213809145028823F4
:102A800099F289E30E942213CFCF88E2FBCF043F63
:102A90003CE51307A1F188F4093D9CE5190759F1BC
:102AA0000A3DECE51E07B9F1083DFCE51F0709F0FA
:102AB00005CF26E241EE61EE0DC0063F2CE5120780
:102AC00031F108F127E245EE66EE073F8CE5180785
:102AD00009F0F4CEC7010E9435138091B9028770C6
:102AE00009F45ECEF7018281882309F459CE82E091
:102AF0000E940D0F55CE27E245EE65EEEBCF26E2A4
:102B000041EE60EEE7CF27E245EE64EEE3CF26E24A
:102B100041EE62EEDFCF28E241E0EFCF8091DF02AD
:102B2000806106309CE5190709F447C08091DF02F7
:102B3000886007301C4508F440C08091DF02806245
:102B40003CC00B30FCE51F0709F49BC068F409305A
:102B50003CE5130709F48BC00A301C4509F0E9CEA7
:102B60008091DF028C6029C08091DF028B7F0D3065
:102B70009CE5190711F18091DF028D7F0E301C4515
:102B8000E0F08091DF02877F18C00B3FFCE51F0754
:102B900009F461C060F502313CE5130709F481C016
:102BA00078F400319CE5190709F477C08091DF02C1
:102BB0008F7B01311C4509F0BCCE8093DF02B9CE7A
:102BC0000431FCE51F0709F47AC008F470C0053130
:102BD0001C4509F0AECE8091DF0282FB992790F967
:102BE00021E0922790FB82F990FB83F9E6CF0E3F1C
:102BF0008CE5180709F449C070F40C3FECE51E079A
:102C000071F18091E0028E7F0D3F1C4509F091CE5D
:102C10008093E0028ECE01152DE5120709F44BC01A
:102C200060F101301D4509F084CE8091E002982FBB
:102C3000909591708E7F892B90FB81F9E9CF8091DF
:102C4000DF028160BACF8091DF028260B6CF8091CF
:102C5000DF028460B2CF8091E0028160D9CF8091A1
:102C6000E0028260D5CF8091DF028064A6CF0E940F
:102C7000500F8091DF028068A0CF8091E0028360D6
:102C8000C7CF8091DF028E7F98CF8091E0028D7F49
:102C9000BFCF8091DF028F7E90CF8091DF028F7D4A
:102CA0008CCF0E94500F8091DF028F7786CF80916A
:102CB000DF02837F82CF8091E0028C7FA9CF0E94C8
:102CC000500F9091DF02892F97FB87F9805875CFBD
:102CD000882309F455C00F3D9CE5190709F446C047
:102CE0000930EDE51E0709F444C001151C4509F043
:102CF00047C00E94500F2FEF34E38CE0215030404A
:102D00008040E1F700C00000F89481E08093E0008B
:102D100080E28093D8001092C900EFE1FEE4319781
:102D2000F1F700C000001DBA109268001CBC10BE74
:102D30001FBA10927A0010926E0010926F001092DB
:102D40007100109272001092C9001092BC0014B869
:102D500017B81AB81DB810BA1092BC0015B818B838
:102D60001BB81EB811BA0C94003FB7CE0E94EA0BF4
:102D7000B4CE8091130391E0892780931303ADCEE5
:102D8000F70100811181882309F444C0C8010E9421
:102D9000BA09D82E682FC8010E943A07B8018D2DB4
:102DA0000E941708082FD92EB82EF701C580C294AB
:102DB0007FE0C722128111111092BB028091B902EB
:102DC0008770C1F01123B1F08D2D807F803449F0E0
:102DD00090E2900F983070F0803619F4F6EFBF163D
:102DE00049F082E00E940D0F8091B9028770AA24F9
:102DF000A3948111A12C9D2C92945FE095226BE00D
:102E0000462E491408F441C0E92DF0E0E25BFB4D89
:102E10000C94B422C8010E941107D82EBFCF2D2DCB
:102E20002F70C22E8D2D807F19F0C29440EFC422E6
:102E30001123C9F0CC2069F080E2800F883010F0B7
:102E4000B1100BC08091BC02C82AC092BC020E9483
:102E5000CC06802F0E94AD1218C08091BB02C82AF8
:102E6000C092BB02F4CF802F0E945F12CC2069F089
:102E7000C094005E083010F0B11057C08091BC02C1
:102E8000C822C092BC020E94CC06292D2850330BC8
:102E90002430310510F40E94C807112379F08D2DDC
:102EA000807F803619F436EFB31641F080914702E7
:102EB000823009F097C283E080934702AA20A9F0EC
:102EC0008091B90280FD11C0F70112828595859528
:102ED00085950E94250FC7010E94AE138091B9020B
:102EE0008595859585950E94EA0E85E0F701DE01BE
:102EF000119601900D928A95E1F789819A810E943D
:102F000011079A81E981F0E026E0929FE00DF11D22
:102F1000112434E5839FE00DF11D1124EE0FFF1FF6
:102F2000EA55FE4F859194913BCC8091BB02C8221B
:102F3000C092BB02A8CF3D2D3F70832E8D2D807F88
:102F4000803219F0829430EF8322BB2041F081E07F
:102F5000B81631F1112381F1CC2049F17ACF112338
:102F600091F09091BD02882D892BC11003C00E9461
:102F700092078BCFE1E0CE12FACF891709F485CF03
:102F80008093BD0282CFC11006C00E94C606882D64
:102F90000E9487077ACFF1E0CF1609F476CFF5CFFC
:102FA000112339F0442443944C1408F46ECF882D37
:102FB000DECFC1106ACFEBCFCC2049F329E3522EEC
:102FC000B51009C02FEF37EE83E02150304080402C
:102FD000E1F700C00000802F0E945F1256CF8D2DB8
:102FE00086958695837069F0813009F04ECF802FE9
:102FF0009D2D9370111102C090E080E00E949C070B
:1030000044CF802F9D2D9370111102C090E080E07D
:103010000E94B2073ACF802F112329F00E94A30506
:103020000E946E0E32CF0E94DC04FACF8D2D837089
:1030300009F067C0111129CF202F229526952770FE
:10304000220F220F402F4F7050E070E060E0022E00
:1030500004C0440F551F661F771F0A94D2F780E003
:1030600090E0DC0104FF0FC08FE090E0A0E0B0E052
:1030700004C0880F991FAA1FBB1F2A95D2F78095FD
:103080009095A095B0952D2D2695269523702230EC
:1030900029F1D8F44090BE025090BF026090C00267
:1030A0007090C102213069F0842B952BA62BB72B91
:1030B000BC01CD0164217521862197210E94460F14
:1030C000E4CE44295529662977292A013B01482A5B
:1030D000592A6A2A7B2AC301B201F0CF842B952B8F
:1030E000A62BB72B4090BE025090BF026090C0024A
:1030F0007090C102BC01CD016425752586259725F8
:10310000DDCF8695112311F08D2D8170882309F470
:10311000BCCE202F229526952770220F220F402FFC
:103120004F7050E070E060E0022E04C0440F551F65
:10313000661F771F0A94D2F780E090E0DC0104FF5D
:103140000FC08FE090E0A0E0B0E004C0880F991FAE
:10315000AA1FBB1F2A95D2F780959095A095B09590
:103160002D2D269526952370223029F1D8F44090F4
:103170000D0350900E0360900F03709010032130E8
:1031800069F0842B952BA62BB72BBC01CD016421B4
:103190007521862197210E94AF0E77CE44295529AB
:1031A000662977292A013B01482A592A6A2A7B2A5B
:1031B000C301B201F0CF842B952BA62BB72B4090E7
:1031C0000D0350900E0360900F0370901003BC012C
:1031D000CD016425752586259725DDCF2D2D2F70F2
:1031E000C22E112329F0822F0E94250F802FBFCEDF
:1031F000802F0E9487078C2D0E94EA0E46CE802FDA
:1032000032EFB31609F452C03B1578F090EFB916BF
:1032100029F1E1EFBE1609F441C0112309F46AC097
:10322000C11017CE8D2D8F713EC0F3EFBF1609F47C
:1032300042C094EF492EB410F0CF112309F44FC0CF
:103240000D2D0F71802F0E94250F28E0029FC001D5
:10325000112483608093B902802F25C01123C1F00F
:10326000C11013CE2D2D2F7161E070E080E090E051
:1032700004C0660F771F881F991F2A95D2F74090C8
:103280000D0350900E0360900F0370901003A1CFB8
:10329000552453945C1408F4F8CDE4CF8D2D8F7130
:1032A000112309F4A9CF0E94250FEFCD8D2D8F7129
:1032B0001123C9F3A1CF60E070E0CB01112309F421
:1032C0006ACF2D2D2F7161E070E080E090E004C0A6
:1032D000660F771F881F991F2A95D2F75CCF81E070
:1032E0000E940D0F31E03C1508F0CFCD82E00E9426
:1032F0000D0FCBCDCC2059F0893309F06CCE8FEF78
:1033000097EEE3E081509040E040E1F762CE8D2DF2
:103310008F7172CFE0E1E00FE73008F03EC0F0E0DF
:10332000E65AFB4D0C94B422112309F4AECD8091E2
:10333000490291E0892780934902A7CD1093490261
:10334000A4CD81E08127F7CF11119FCD81E0F3CF8C
:1033500011119BCD1092490298CD112321F082E0EA
:1033600080934702F3CF80914702823021F481E0BD
:10337000809347028ACD833009F087CD10924702AF
:10338000E9CF112339F080914802882381F210920D
:1033900048027BCDCC2059F278CD80914802CC20D8
:1033A000A9F0882341F08091490291E08927809318
:1033B000490210924802802F11114CCD0E945F12D9
:1033C00086E0F70111928A95E9F75FCD882309F429
:1033D0005CCD11115ACD8091490291E089278093EB
:1033E0004902D5CF813009F069CD10924702109281
:1033F000490264CDF701828119828111AACA82E152
:103400008A83F70180818B8381818C838EEF8D830A
:1034100065E0CE0101960E94C504FAC985E0DE018F
:10342000119601900D928A95E1F7F7012281898129
:103430009A812111CBC90E941107082FCFC90631EB
:10344000FCE51F0709F044CC8091BC028A7A91E028
:1034500009F490E09093460269E2811165E388E007
:1034600092E00E9444060E94CC0637CB06311C45F0
:1034700009F086CC8091460269E2811165E388E01B
:1034800092E00E941A06EFCF1F93CF93DF938091B3
:103490004F02807FA9F480914C02882389F08091AB
:1034A0008102D091500260914A0270914B02A0912A
:1034B0004D02B0914E02C62FC72316E0D81304C0A8
:1034C000DF91CF911F91089590E0109711F0CF3FB9
:1034D00019F401968770F2CF189F9001199F300D53
:1034E0001124F901EF5AFD4F41814713F2CF40817A
:1034F0004613EFCF42814111ECCF438154814A1BE7
:103500005B0B483C510528F780914F028F7080611A
:1035100080934F02F901EA5AFD4F80818F708061DC
:1035200080838AE492E00E94AE13DF91CF911F91D5
:103530000C946807AF92BF92CF92DF92EF92FF9206
:103540000F931F93CF93DF93CDB7DEB761970FB67D
:10355000F894DEBF0FBECDBF8C0185E0F801DE011F
:103560001D9601900D928A95E1F7F8018081918175
:10357000E2802AE4A22E22E0B22E60914D027091E8
:103580004E026115710509F43EC130914A02409125
:103590004B02232F24232F3F09F435C1C380D4804D
:1035A000F0904C02F601E61BF70BFF2009F4FBC07C
:1035B00020914F02522F507FE83CF10508F0BBC02C
:1035C000511178C0FE2C491321C038131FC0E110DF
:1035D0001DC02F70206120934F02C5010E94AE13C1
:1035E00080914F02F80185838F2D61960FB6F89474
:1035F000DEBF0FBECDBFDF91CF911F910F91FF9026
:10360000EF90DF90CF90BF90AF900895CD2829F034
:10361000282F29232F3F09F022C120E0F22FF1703B
:10362000DF2E20FF3DC0209181024091500256E0E4
:10363000241315C08D879E878D859E850E94FC0969
:10364000292F22952F702230F8F0243020F59F701A
:10365000F9F0F8019581907FD9F4D12C1FC030E0AA
:10366000529FF001539FF00D1124EF5AFD4F6181DD
:10367000961306C06081861303C06281E61210C0F3
:103680002F5F3F4F2770D4CF9F7011F0882329F30D
:10369000805E883010F3C8010E94AE13FD2CA4CFC9
:1036A000EE2009F4A1CF80914F02816080934F02F8
:1036B000F12C9ACF491312C0381310C0E1100EC07C
:1036C000F8012583C8010E94AE1386E0F801AAE440
:1036D000B2E001900D928A95E1F786CF8D879E87A3
:1036E0008D859E850E94060A882309F1EE20F9F057
:1036F00080914F02803270F020914A0230914B024B
:1037000038872F831986DB86CA868C87CE01079679
:103710000E94AE1386E0F801AAE4B2E001900D9297
:103720008A95E1F70E94441AFF24F3945DCFC80103
:103730000E94AE13F9CF51110AC08AE492E00E94B0
:10374000AE1386E0F50111928A95E9F7B1CF4913DE
:103750000FC038130DC0E1100BC0F8012583C8015C
:103760000E94AE1386E0F50111928A95E9F73CCFED
:103770008D879E878D859E850E94060A8823B9F2D3
:10378000EE20A9F280914F02803220F220914A026D
:1037900030914B023A8329831B82DD82CC828E8357
:1037A000CE010196B5CFE83CF105E0F6FE2CEE2007
:1037B00009F4BDCF491316C0381314C080914F02CD
:1037C00080FD83CF982F907F09F47FCFF801858308
:1037D000903F09F477CF982F907F905F8F70892B5F
:1037E000858370CF8D879E878D859E850E94060A72
:1037F000811190CF80914F02816080934F02C80168
:103800000E94AE13F1CEEE2009F491CF8D879E87F2
:103810008D859E850E94060AF82E882309F487CF9D
:1038200086E0F801AAE4B2E001900D928A95E1F7F2
:1038300080914A0290914B020E94FC0992959F70E0
:10384000963051F4863F41F08091490291E08927FA
:1038500080934902909348020E94441AC5CE21E009
:103860002E25DCCE1F93CF93DF93CDB7DEB76797BE
:103870000FB6F894DEBF0FBECDBF6D8B7E8B8F8BE6
:103880008E899F89892BE1F0852F84238F3F09F052
:1038900098C05FEF4FEF14C030914902332309F411
:1038A0004EC0E42FF0E036E0539FE00DF11D1124EF
:1038B000EE0FFF1FE15EFE4F40815181822B8C9302
:1038C0001A8A198A4B8B5C8B85E0FE017396DE01A8
:1038D0001D9601900D928A95E1F786E0FE013D96D6
:1038E000DE01179601900D928A95E1F7CE010796B9
:1038F0000E949A1A811112C086E0FE013796DE01FD
:10390000119601900D928A95E1F78A859B85892B06
:1039100029F08F81988589238F3FC9F516E0809122
:10392000810290915002891320C067960FB6F894D7
:10393000DEBF0FBECDBFDF91CF911F91089580955F
:103940008223BDCF96E0929FD001939FB00D1124AA
:10395000AF5ABD4FFE01319601900D929A95E1F755
:10396000809350020E946807D9CF819FC001112423
:103970008F5A9D4F0E949A1A8823B9F28091810232
:1039800090E001968770992780938102C8CF20919B
:10399000500230E0C9010196877099274091810259
:1039A0004817190679F60E94500F10925002109293
:1039B000810286E0EAE4F2E0DF011D928A95E9F7F0
:1039C000ADCF81E090E0042E01C0880F0A94EAF7A1
:1039D000A52FB0E0AA5CBD4F2C913D8931115CCF81
:1039E000322F38235BCF8F929F92BF92CF92DF927C
:1039F000EF92FF920F931F93CF93DF938091060175
:103A000090910701892B91F0809129028F5F80931B
:103A1000290281110BC00E94B90C90E0909307011C
:103A200080930601892B11F40E94620B21ED822EF6
:103A300022E0922E740110E000E097E0C92EC00E43
:103A4000802F0E94650C8C2D0E94650C802F0E9497
:103A5000300DE70199917E01D12C891729F0FE01E3
:103A600031978083DD24D3948C2D0E94300DF70193
:103A70009681891709F47AC0868381E08D29182BF5
:103A80000E94AA0A0F5F0730C1F60E94620E609181
:103A90002B0270912C0290932C0280932B02209188
:103AA0002A0230E0261B370B820F931F6BEF70E06A
:103AB0000E948C22E82E392F082F80932A02F09042
:103AC0002E02FF2009F4A3C010922E02E091C7023B
:103AD000F091C802AF01425F5F4F20E08BEFB82E3C
:103AE0006BEF70E0A191AB3F99F0CA2ED12C8E2DD7
:103AF000932F0A17E8F18C199D09092E000CAA0BC7
:103B0000BB0B4E97A105B105C8F1DF011197BC921F
:103B1000E417F50739F720932E02111102C0211185
:103B200078C010922D02A091C702B091C802909166
:103B30002E02E4EEF2E080E03191E40129914E01A1
:103B4000321751F03C913B3FD9F40C93AF014150F7
:103B50005109EA01288391E01196D2E0E23FFD0786
:103B600059F790932E0280932D0257C080E086CFA4
:103B7000DB01AC19BD098A0F9B1FBFCF2F2DC8CF0A
:103B800081E0EACF9170892B09F458C0809130020E
:103B9000909131028130984780F010921303609128
:103BA0000D0370910E0380910F03909110030E94FA
:103BB000760A109231021092300280913002909178
:103BC000310201969093310280933002812FDF9170
:103BD000CF911F910F91FF90EF90DF90CF90BF900A
:103BE0009F908F9008950E94700A2EC0892B71F3C8
:103BF000109231021092300260910D0370910E0309
:103C000080910F03909110030E94760ADFCF11116B
:103C100088CF80912D02811184CF809130029091C4
:103C2000310220911303222309F3009709F0AACF50
:103C30000E94670A0E94640A0E94610AC0912F02D2
:103C4000CC2389F20E94640A81E0C827C0932F0226
:103C50009DCFCDB7DEB7C955D1090FB6F894DEBFF9
:103C60000FBECDBF84B7877F84BF0FB6F894A895E9
:103C700080916000886180936000109260000FBEA8
:103C800080E890E00FB6F894809361009093610013
:103C90000FBE85B7806885BF85B7806885BF0E94E5
:103CA000D7020E94A4038091E20084608093E20026
:103CB0007894809139038823A1F01091E9001F7056
:103CC0009091EC00892F817090FD80E8182B109264
:103CD000E9008091E80083FD0E94650F1F7010933A
:103CE000E90082E084BD93E095BD9AEF97BD809393
:103CF0006E000E94B90C90E090930701809306013A
:103D00000E94AA0A0E94B90AE1EDF2E08FED92E06A
:103D1000A4EEB2E011921D928E179F07D9F78EE0A4
:103D200090E00E9402238093C7029093C802FC0196
:103D30000E962BEF21938E179F07E1F790E080E01E
:103D40000E94C8228F3E9E4F11F00E94EA0B8CE029
:103D500090E00E94BA2290E0B0E0A0E08093C90217
:103D60009093CA02A093CB02B093CC0289EA8093CD
:103D7000800089E08093810024982C983F988AB134
:103D80008F7C8AB96E98479A8BB180638BB9769A8B
:103D90008FE090E00E94C2226093CD027093CE0229
:103DA0008093CF029093D00267704FEF649FB00171
:103DB0001124759567957595679577277093890098
:103DC0006093880070938B0060938A0070938D00DD
:103DD00060938C000E94620B90E080E00E94C822F9
:103DE0008F3E9E4F11F00E94EA0B82E090E00E940D
:103DF000BA228093FE020E94DC0B9093E002809333
:103E0000DF0283E090E00E94BA22682F70E090E029
:103E100080E00E94460F60910D0370910E03809127
:103E20000F03909110030E94760A88E091E090932E
:103E3000E2028093E10228E1E22EF12C84EE92E08E
:103E40003EE0B32EB80E41E4C42ED12CCC0EDD1EC4
:103E5000F2E0CF0ED11C8091390390E4A92E00E14D
:103E600012E1853009F492C10E94F31CEFEFF2E0F9
:103E7000A4EEB2E010E000E0302F8D9121912817E0
:103E800009F493C190E0AA24A3942827422F4A2141
:103E900009F486C161969FAF619762963FAF6297C2
:103EA0008A2191E009F490E063969FAF63970E94A6
:103EB000620E8160782F65969FAF8EAF6597619691
:103EC0004FAD619762965FAD629763966FAD6397F2
:103ED00065968FAD65970E94321CF801E150FD4F49
:103EE0008081A826A08285E0E8EFF2E0DE0111964D
:103EF00001900D928A95E1F7A090F9029090FA0254
:103F00001091FB020091FC021092F9021092FA0249
:103F10001092FB021092FC028A2D892909F448C0F4
:103F20008091F6029091F7020E940B069C019091FD
:103F3000F502992309F40CC225313105C8F19F3FE0
:103F400019F09F5F9093F502AA2059F00E947F0517
:103F50009FEF1A140CF491E0899F802D1124809317
:103F6000F902992059F00E947F059FEF19140CF473
:103F700091E0899F802D11248093FA023091F902FB
:103F80003323B1F02091FA02222391F045EB340360
:103F9000C0011124992309F42FC19093F90245EB34
:103FA000240390011124332309F42AC13093FA0227
:103FB000812F802B09F448C08091F3029091F40284
:103FC0000E940B069C019091F202992309F4BCC156
:103FD00025313105C8F19F3F19F09F5F9093F202A0
:103FE000112359F00E945F059FEF11160CF491E028
:103FF000899F802D11248093FB02002359F00E9499
:104000005F059FEF10160CF491E0899F802D11241D
:104010008093FC023091FB023323B1F02091FC022B
:10402000222391F045EB3403C0011124992309F4B4
:10403000EBC09093FB0245EB240390011124332342
:1040400009F4E6C03093FC028091F9029091FA02E3
:10405000892B9091FB02892B9091FC02892B11F006
:104060000E946E0E85E0FE013196A8EFB2E001904D
:104070000D928A95E1F70E94C8079091FD02891779
:1040800021F00E94C8078093FD028091390384309B
:1040900009F0E1CE85E08093E9008091E80082FF9D
:1040A000DACE8091E80090E085FF06C00E94F6021B
:1040B000882309F4B1C091E08091E8008B77809368
:1040C000E800992309F4C7CE19811111C3C080916A
:1040D0001303882309F4D9C01092130381E080935D
:1040E000120322961FAE229723961FAE23978EEFC0
:1040F00024968FAF249763E0CE018F5B9F4F0E9481
:10410000C504A9CE80913903843009F11092E302ED
:104110000FB6F894A895E09260000FBEA0926000E0
:1041200083B7817F846083BF83B7816083BF7894C6
:10413000889583B78E7F83BF0FB6F894A89580913A
:104140006000886180936000109260000FBE8091D3
:1041500038038823D9F00E94B90C90E090930701AE
:10416000809306010E94AA0A0E94B90AE4EEF2E0D6
:10417000119222E0E23FF207D9F70E94F31CE4EE2D
:10418000F2E081918111C1C0BE12FBCF8091390351
:10419000853009F4B7CF0E94500F0E94C80764CE43
:1041A0009F5FAA0C963009F071CE0F5F1F4F0E3043
:1041B000110509F061CE8FEF66968FAF669767960F
:1041C0008FAF679768961FAE68970E94620E8160F6
:1041D000782F6A969FAF8EAF6A9766964FAD6697B7
:1041E00067965FAD679768966FAD68976A968FAD73
:1041F0006A970E94321C77CE81E08093F902CFCE7D
:1042000081E08093FA02D4CE81E08093FB0213CF49
:1042100081E08093FC0218CF80E4882E912C8E01DF
:104220000F5F1F4F8091E80085FD0AC08091E80074
:104230008B778093E8000E94F602882399F33BCFA6
:104240008091F100F80181938F01F1E08F1A9108BC
:1042500049F731CF1130C9F422961FAE2297239629
:104260001FAF23978CE0E3E1F1E0D60101900D92BE
:104270008A95E1F78EEF60968FAF60976FE0CE0181
:104280008F5B9F4F0E94C504E6CD80911203882367
:10429000D1F1123041F01330F9F081E022968FAF66
:1042A000229761E029CF60910D0370910E038091F8
:1042B0000F03909110030E94790622961FAE229759
:1042C00023961FAF239724968FAF24978EEF2596C2
:1042D0008FAF259764E010CF8A81813041F0882329
:1042E00041F08230D1F681E08093110302C0109238
:1042F000110322961FAE229783E023968FAF239758
:1043000080911103E0CF8FEFC9CF09BD19BD09B46A
:1043100000FEFDCF8091D8008F7D8093D8008091E2
:10432000E00082608093E0008091E00081FDFCCF9E
:104330000E94500F4FEF83EC99E041508040904035
:10434000E1F700C0000022CF232B09F046CE7CCE3F
:10435000232B09F0F6CD2CCE1F921FB61F921124ED
:104360008F939F93AF93BF938091E302811113C00A
:104370008091C2029091C302A091C402B091C50283
:104380004196A11DB11D8093C2029093C302A093D8
:10439000C402B093C502BF91AF919F918F911F90BE
:1043A0001FBE1F9018951092B9008CE08093B80042
:1043B0000895EF92FF920F931F93CF93DF93182FDF
:1043C000EB011092BC0084EA8093BC000E94620E54
:1043D0007C018091BC0087FF27C08091B900887F55
:1043E000883029F08091B900887F8031D9F5109309
:1043F000BB0084E88093BC000E94620E8C01809117
:10440000BC0087FF24C02091B900287F90E080E0A5
:104410002831B1F081E090E0203411F490E080E0A8
:104420009195819591090CC0CF3FDC0791F20E94D4
:10443000620E8E199F098C179D0758F28EEF9FEF21
:10444000DF91CF911F910F91FF90EF900895CF3F93
:10445000DC07A9F20E94620E801B910B8C179D074E
:1044600070F2ECCF8FEF9FEFEBCF0F931F93CF93B3
:10447000DF93EB018093BB0084E88093BC000E9433
:10448000620E8C018091BC0087FF11C02091B900A1
:10449000287F81E090E0283211F490E080E091954F
:1044A00081959109DF91CF911F910F910895CF3F91
:1044B000DC0741F30E94620E801B910B8C179D0755
:1044C00008F38EEF9FEFEECF0F931F93CF93DF9301
:1044D000EC0184E88093BC000E94620E8C01809104
:1044E000BC0087FF08C08091BB0090E0DF91CF91B6
:1044F0001F910F910895CF3FDC0789F30E94620E50
:10450000801B910B8C179D0750F38EEF9FEFEECF22
:1045100084E98093BC000895AA1BBB1B51E107C02E
:10452000AA1FBB1FA617B70710F0A61BB70B881F43
:10453000991F5A95A9F780959095BC01CD010895D2
:1045400097FB072E16F4009407D077FD09D00E9440
:104550008C2207FC05D03EF4909581959F4F0895DD
:10456000709561957F4F0895EE0FFF1F0590F491B0
:10457000E02D0994F999FECF92BD81BDF89A992753
:1045800080B50895A6E1B0E044E050E00C94F42238
:10459000A8E1B0E042E050E00C94F422262FF99913
:1045A000FECF92BD81BDF89A019700B4021639F092
:1045B0001FBA20BD0FB6F894FA9AF99A0FBE089563
:1045C0000396272F0E94CF220E94CE22252F0E94E1
:1045D000CF22242F0C94CF220196272F0E94CF2286
:1045E0000C94CE22DC01CB01FC01F999FECF06C070
:1045F000F2BDE1BDF89A319600B40D9241505040A1
:10460000B8F708950F931F93CF93DF9382309105EE
:1046100010F482E090E0E0914803F091490330E02B
:1046200020E0B0E0A0E0309799F42115310509F4BD
:1046300047C0281B390B24303105C0F58A819B8186
:104640006115710571F1FB0193838283FE0111C035
:10465000408151810281138148175907F8F04817AA
:10466000590799F4109761F012960C9312971396CC
:104670001C933296CF01DF91CF911F910F91089536
:104680000093480310934903F4CF2115310519F025
:104690004217530718F49A01BD01EF01DF01F80139
:1046A000C2CF9093490380934803D0CFFE01E20F1D
:1046B000F31F819391932250310939832883DACFF4
:1046C0002091460330914703232B41F420910201AE
:1046D000309103013093470320934603209100015A
:1046E000309101012115310541F42DB73EB74091BC
:1046F000040150910501241B350B40914603509154
:1047000047034217530708F0B5CF241B350B281772
:10471000390708F4AFCFBC016E5F7F4F261737070C
:1047200008F4A8CF640F751F709347036093460386
:10473000FA01819391939ECFCF93DF930097E9F095
:10474000FC01329713821282C0914803D091490331
:10475000DE0130E020E02097A1F420813181820F3A
:10476000931F20914603309147032817390709F01A
:1047700067C0F0934703E0934603DF91CF9108951C
:10478000DA01AE17BF0708F040C012964D915C9158
:1047900013979D014115510599F7D9011396FC9383
:1047A000EE9312974D915D91A40FB51FEA17FB0789
:1047B00079F4808191810296840F951FD901119619
:1047C0009C938E938281938113969C938E931297E0
:1047D000B0E0A0E08A819B810097B9F5FE0181914C
:1047E0009191E80FF91F80914603909147038E172E
:1047F0009F0719F6109761F510924903109248032C
:10480000D0934703C0934603B8CFB383A2834081BC
:104810005181840F951FA817B90771F44E5F5F4F40
:104820008D919C911197480F591F51834083129687
:104830008D919C91938382832115310509F0ADCF31
:10484000F0934903E093480398CFDE01EC01C2CF17
:1048500013961C921E921297D3CFF894FFCF150A8D
:10486000150A1E0A1E0A200A1E0A1E0A1E0A150A18
:10487000150A250A1E0A1E0A250A910A9D0AA20A7D
:104880009B0AA00AA70AA50A8610AE100312AE1052
:104890000312E11002110312AE11BB110F170F1713
:1048A0009B179B17EF170B188A1945171618EE1848
:1048B000FF18FF189419C1199E19A119A819A41954
:0248C000AD1930
:1048C20000004A0320002000C204220B010BFD0A53
:1048D200F90A0152514759652F7A50344B3300007F
:1048E2000D010D020D030D040D050D000C010C024E
:1048F2000C030C040C050C000B010B020B030B0444
:104902000B050B000A010A020A030A040A050A003F
:10491200090109020903090409050900080108023D
:104922000803080408050800070107020703070433
:10493200070507000601060206030604060506002F
:10494200050105020503050405050500040104022D
:104952000403040404050400030103020303030423
:10496200030503000201020202030204020502001F
:10497200010101020103010401050100000100021D
:1049820000030004000500818283E200E900EA00DE
:10499200B500B600B700CD008301CC008A019201B8
:1049A20094012102230224022502260227022A025E
:1049B200B300B4006F007000404D6D66011901AC88
:0849C200007E049704B004001C
:00000001FF
